{
	"data": {
		"bytecode": {
			"linkReferences": {},
			"object": "608060405234801561001057600080fd5b506107c9806100206000396000f3fe608060405234801561001057600080fd5b506004361061004c5760003560e01c80633c84c5a514610051578063c47f00271461006f578063f2ceb2621461009f578063fae2dd4b146100cf575b600080fd5b6100596100ed565b60405161006691906101c7565b60405180910390f35b6100896004803603810190610084919061033c565b6100f3565b60405161009691906103a0565b60405180910390f35b6100b960048036038101906100b491906103e7565b61010e565b6040516100c691906103a0565b60405180910390f35b6100d7610120565b6040516100e49190610493565b60405180910390f35b60015481565b6000816000908161010491906106c1565b5060019050919050565b60008160018190555060019050919050565b6000805461012d906104e4565b80601f0160208091040260200160405190810160405280929190818152602001828054610159906104e4565b80156101a65780601f1061017b576101008083540402835291602001916101a6565b820191906000526020600020905b81548152906001019060200180831161018957829003601f168201915b505050505081565b6000819050919050565b6101c1816101ae565b82525050565b60006020820190506101dc60008301846101b8565b92915050565b6000604051905090565b600080fd5b600080fd5b600080fd5b600080fd5b6000601f19601f8301169050919050565b7f4e487b7100000000000000000000000000000000000000000000000000000000600052604160045260246000fd5b61024982610200565b810181811067ffffffffffffffff8211171561026857610267610211565b5b80604052505050565b600061027b6101e2565b90506102878282610240565b919050565b600067ffffffffffffffff8211156102a7576102a6610211565b5b6102b082610200565b9050602081019050919050565b82818337600083830152505050565b60006102df6102da8461028c565b610271565b9050828152602081018484840111156102fb576102fa6101fb565b5b6103068482856102bd565b509392505050565b600082601f830112610323576103226101f6565b5b81356103338482602086016102cc565b91505092915050565b600060208284031215610352576103516101ec565b5b600082013567ffffffffffffffff8111156103705761036f6101f1565b5b61037c8482850161030e565b91505092915050565b60008115159050919050565b61039a81610385565b82525050565b60006020820190506103b56000830184610391565b92915050565b6103c4816101ae565b81146103cf57600080fd5b50565b6000813590506103e1816103bb565b92915050565b6000602082840312156103fd576103fc6101ec565b5b600061040b848285016103d2565b91505092915050565b600081519050919050565b600082825260208201905092915050565b60005b8381101561044e578082015181840152602081019050610433565b60008484015250505050565b600061046582610414565b61046f818561041f565b935061047f818560208601610430565b61048881610200565b840191505092915050565b600060208201905081810360008301526104ad818461045a565b905092915050565b7f4e487b7100000000000000000000000000000000000000000000000000000000600052602260045260246000fd5b600060028204905060018216806104fc57607f821691505b60208210810361050f5761050e6104b5565b5b50919050565b60008190508160005260206000209050919050565b60006020601f8301049050919050565b600082821b905092915050565b6000600883026105777fffffffffffffffffffffffffffffffffffffffffffffffffffffffffffffffff8261053a565b610581868361053a565b95508019841693508086168417925050509392505050565b6000819050919050565b60006105be6105b96105b4846101ae565b610599565b6101ae565b9050919050565b6000819050919050565b6105d8836105a3565b6105ec6105e4826105c5565b848454610547565b825550505050565b600090565b6106016105f4565b61060c8184846105cf565b505050565b5b81811015610630576106256000826105f9565b600181019050610612565b5050565b601f8211156106755761064681610515565b61064f8461052a565b8101602085101561065e578190505b61067261066a8561052a565b830182610611565b50505b505050565b600082821c905092915050565b60006106986000198460080261067a565b1980831691505092915050565b60006106b18383610687565b9150826002028217905092915050565b6106ca82610414565b67ffffffffffffffff8111156106e3576106e2610211565b5b6106ed82546104e4565b6106f8828285610634565b600060209050601f83116001811461072b5760008415610719578287015190505b61072385826106a5565b86555061078b565b601f19841661073986610515565b60005b828110156107615784890151825560018201915060208501945060208101905061073c565b8683101561077e578489015161077a601f891682610687565b8355505b6001600288020188555050505b50505050505056fea26469706673582212206093617e11d6644d44f7154412f28345affed94af004ff99a63c734ad215cfd964736f6c63430008120033",
			"opcodes": "PUSH1 0x80 PUSH1 0x40 MSTORE CALLVALUE DUP1 ISZERO PUSH2 0x10 JUMPI PUSH1 0x0 DUP1 REVERT JUMPDEST POP PUSH2 0x7C9 DUP1 PUSH2 0x20 PUSH1 0x0 CODECOPY PUSH1 0x0 RETURN INVALID PUSH1 0x80 PUSH1 0x40 MSTORE CALLVALUE DUP1 ISZERO PUSH2 0x10 JUMPI PUSH1 0x0 DUP1 REVERT JUMPDEST POP PUSH1 0x4 CALLDATASIZE LT PUSH2 0x4C JUMPI PUSH1 0x0 CALLDATALOAD PUSH1 0xE0 SHR DUP1 PUSH4 0x3C84C5A5 EQ PUSH2 0x51 JUMPI DUP1 PUSH4 0xC47F0027 EQ PUSH2 0x6F JUMPI DUP1 PUSH4 0xF2CEB262 EQ PUSH2 0x9F JUMPI DUP1 PUSH4 0xFAE2DD4B EQ PUSH2 0xCF JUMPI JUMPDEST PUSH1 0x0 DUP1 REVERT JUMPDEST PUSH2 0x59 PUSH2 0xED JUMP JUMPDEST PUSH1 0x40 MLOAD PUSH2 0x66 SWAP2 SWAP1 PUSH2 0x1C7 JUMP JUMPDEST PUSH1 0x40 MLOAD DUP1 SWAP2 SUB SWAP1 RETURN JUMPDEST PUSH2 0x89 PUSH1 0x4 DUP1 CALLDATASIZE SUB DUP2 ADD SWAP1 PUSH2 0x84 SWAP2 SWAP1 PUSH2 0x33C JUMP JUMPDEST PUSH2 0xF3 JUMP JUMPDEST PUSH1 0x40 MLOAD PUSH2 0x96 SWAP2 SWAP1 PUSH2 0x3A0 JUMP JUMPDEST PUSH1 0x40 MLOAD DUP1 SWAP2 SUB SWAP1 RETURN JUMPDEST PUSH2 0xB9 PUSH1 0x4 DUP1 CALLDATASIZE SUB DUP2 ADD SWAP1 PUSH2 0xB4 SWAP2 SWAP1 PUSH2 0x3E7 JUMP JUMPDEST PUSH2 0x10E JUMP JUMPDEST PUSH1 0x40 MLOAD PUSH2 0xC6 SWAP2 SWAP1 PUSH2 0x3A0 JUMP JUMPDEST PUSH1 0x40 MLOAD DUP1 SWAP2 SUB SWAP1 RETURN JUMPDEST PUSH2 0xD7 PUSH2 0x120 JUMP JUMPDEST PUSH1 0x40 MLOAD PUSH2 0xE4 SWAP2 SWAP1 PUSH2 0x493 JUMP JUMPDEST PUSH1 0x40 MLOAD DUP1 SWAP2 SUB SWAP1 RETURN JUMPDEST PUSH1 0x1 SLOAD DUP2 JUMP JUMPDEST PUSH1 0x0 DUP2 PUSH1 0x0 SWAP1 DUP2 PUSH2 0x104 SWAP2 SWAP1 PUSH2 0x6C1 JUMP JUMPDEST POP PUSH1 0x1 SWAP1 POP SWAP2 SWAP1 POP JUMP JUMPDEST PUSH1 0x0 DUP2 PUSH1 0x1 DUP2 SWAP1 SSTORE POP PUSH1 0x1 SWAP1 POP SWAP2 SWAP1 POP JUMP JUMPDEST PUSH1 0x0 DUP1 SLOAD PUSH2 0x12D SWAP1 PUSH2 0x4E4 JUMP JUMPDEST DUP1 PUSH1 0x1F ADD PUSH1 0x20 DUP1 SWAP2 DIV MUL PUSH1 0x20 ADD PUSH1 0x40 MLOAD SWAP1 DUP2 ADD PUSH1 0x40 MSTORE DUP1 SWAP3 SWAP2 SWAP1 DUP2 DUP2 MSTORE PUSH1 0x20 ADD DUP3 DUP1 SLOAD PUSH2 0x159 SWAP1 PUSH2 0x4E4 JUMP JUMPDEST DUP1 ISZERO PUSH2 0x1A6 JUMPI DUP1 PUSH1 0x1F LT PUSH2 0x17B JUMPI PUSH2 0x100 DUP1 DUP4 SLOAD DIV MUL DUP4 MSTORE SWAP2 PUSH1 0x20 ADD SWAP2 PUSH2 0x1A6 JUMP JUMPDEST DUP3 ADD SWAP2 SWAP1 PUSH1 0x0 MSTORE PUSH1 0x20 PUSH1 0x0 KECCAK256 SWAP1 JUMPDEST DUP2 SLOAD DUP2 MSTORE SWAP1 PUSH1 0x1 ADD SWAP1 PUSH1 0x20 ADD DUP1 DUP4 GT PUSH2 0x189 JUMPI DUP3 SWAP1 SUB PUSH1 0x1F AND DUP3 ADD SWAP2 JUMPDEST POP POP POP POP POP DUP2 JUMP JUMPDEST PUSH1 0x0 DUP2 SWAP1 POP SWAP2 SWAP1 POP JUMP JUMPDEST PUSH2 0x1C1 DUP2 PUSH2 0x1AE JUMP JUMPDEST DUP3 MSTORE POP POP JUMP JUMPDEST PUSH1 0x0 PUSH1 0x20 DUP3 ADD SWAP1 POP PUSH2 0x1DC PUSH1 0x0 DUP4 ADD DUP5 PUSH2 0x1B8 JUMP JUMPDEST SWAP3 SWAP2 POP POP JUMP JUMPDEST PUSH1 0x0 PUSH1 0x40 MLOAD SWAP1 POP SWAP1 JUMP JUMPDEST PUSH1 0x0 DUP1 REVERT JUMPDEST PUSH1 0x0 DUP1 REVERT JUMPDEST PUSH1 0x0 DUP1 REVERT JUMPDEST PUSH1 0x0 DUP1 REVERT JUMPDEST PUSH1 0x0 PUSH1 0x1F NOT PUSH1 0x1F DUP4 ADD AND SWAP1 POP SWAP2 SWAP1 POP JUMP JUMPDEST PUSH32 0x4E487B7100000000000000000000000000000000000000000000000000000000 PUSH1 0x0 MSTORE PUSH1 0x41 PUSH1 0x4 MSTORE PUSH1 0x24 PUSH1 0x0 REVERT JUMPDEST PUSH2 0x249 DUP3 PUSH2 0x200 JUMP JUMPDEST DUP2 ADD DUP2 DUP2 LT PUSH8 0xFFFFFFFFFFFFFFFF DUP3 GT OR ISZERO PUSH2 0x268 JUMPI PUSH2 0x267 PUSH2 0x211 JUMP JUMPDEST JUMPDEST DUP1 PUSH1 0x40 MSTORE POP POP POP JUMP JUMPDEST PUSH1 0x0 PUSH2 0x27B PUSH2 0x1E2 JUMP JUMPDEST SWAP1 POP PUSH2 0x287 DUP3 DUP3 PUSH2 0x240 JUMP JUMPDEST SWAP2 SWAP1 POP JUMP JUMPDEST PUSH1 0x0 PUSH8 0xFFFFFFFFFFFFFFFF DUP3 GT ISZERO PUSH2 0x2A7 JUMPI PUSH2 0x2A6 PUSH2 0x211 JUMP JUMPDEST JUMPDEST PUSH2 0x2B0 DUP3 PUSH2 0x200 JUMP JUMPDEST SWAP1 POP PUSH1 0x20 DUP2 ADD SWAP1 POP SWAP2 SWAP1 POP JUMP JUMPDEST DUP3 DUP2 DUP4 CALLDATACOPY PUSH1 0x0 DUP4 DUP4 ADD MSTORE POP POP POP JUMP JUMPDEST PUSH1 0x0 PUSH2 0x2DF PUSH2 0x2DA DUP5 PUSH2 0x28C JUMP JUMPDEST PUSH2 0x271 JUMP JUMPDEST SWAP1 POP DUP3 DUP2 MSTORE PUSH1 0x20 DUP2 ADD DUP5 DUP5 DUP5 ADD GT ISZERO PUSH2 0x2FB JUMPI PUSH2 0x2FA PUSH2 0x1FB JUMP JUMPDEST JUMPDEST PUSH2 0x306 DUP5 DUP3 DUP6 PUSH2 0x2BD JUMP JUMPDEST POP SWAP4 SWAP3 POP POP POP JUMP JUMPDEST PUSH1 0x0 DUP3 PUSH1 0x1F DUP4 ADD SLT PUSH2 0x323 JUMPI PUSH2 0x322 PUSH2 0x1F6 JUMP JUMPDEST JUMPDEST DUP2 CALLDATALOAD PUSH2 0x333 DUP5 DUP3 PUSH1 0x20 DUP7 ADD PUSH2 0x2CC JUMP JUMPDEST SWAP2 POP POP SWAP3 SWAP2 POP POP JUMP JUMPDEST PUSH1 0x0 PUSH1 0x20 DUP3 DUP5 SUB SLT ISZERO PUSH2 0x352 JUMPI PUSH2 0x351 PUSH2 0x1EC JUMP JUMPDEST JUMPDEST PUSH1 0x0 DUP3 ADD CALLDATALOAD PUSH8 0xFFFFFFFFFFFFFFFF DUP2 GT ISZERO PUSH2 0x370 JUMPI PUSH2 0x36F PUSH2 0x1F1 JUMP JUMPDEST JUMPDEST PUSH2 0x37C DUP5 DUP3 DUP6 ADD PUSH2 0x30E JUMP JUMPDEST SWAP2 POP POP SWAP3 SWAP2 POP POP JUMP JUMPDEST PUSH1 0x0 DUP2 ISZERO ISZERO SWAP1 POP SWAP2 SWAP1 POP JUMP JUMPDEST PUSH2 0x39A DUP2 PUSH2 0x385 JUMP JUMPDEST DUP3 MSTORE POP POP JUMP JUMPDEST PUSH1 0x0 PUSH1 0x20 DUP3 ADD SWAP1 POP PUSH2 0x3B5 PUSH1 0x0 DUP4 ADD DUP5 PUSH2 0x391 JUMP JUMPDEST SWAP3 SWAP2 POP POP JUMP JUMPDEST PUSH2 0x3C4 DUP2 PUSH2 0x1AE JUMP JUMPDEST DUP2 EQ PUSH2 0x3CF JUMPI PUSH1 0x0 DUP1 REVERT JUMPDEST POP JUMP JUMPDEST PUSH1 0x0 DUP2 CALLDATALOAD SWAP1 POP PUSH2 0x3E1 DUP2 PUSH2 0x3BB JUMP JUMPDEST SWAP3 SWAP2 POP POP JUMP JUMPDEST PUSH1 0x0 PUSH1 0x20 DUP3 DUP5 SUB SLT ISZERO PUSH2 0x3FD JUMPI PUSH2 0x3FC PUSH2 0x1EC JUMP JUMPDEST JUMPDEST PUSH1 0x0 PUSH2 0x40B DUP5 DUP3 DUP6 ADD PUSH2 0x3D2 JUMP JUMPDEST SWAP2 POP POP SWAP3 SWAP2 POP POP JUMP JUMPDEST PUSH1 0x0 DUP2 MLOAD SWAP1 POP SWAP2 SWAP1 POP JUMP JUMPDEST PUSH1 0x0 DUP3 DUP3 MSTORE PUSH1 0x20 DUP3 ADD SWAP1 POP SWAP3 SWAP2 POP POP JUMP JUMPDEST PUSH1 0x0 JUMPDEST DUP4 DUP2 LT ISZERO PUSH2 0x44E JUMPI DUP1 DUP3 ADD MLOAD DUP2 DUP5 ADD MSTORE PUSH1 0x20 DUP2 ADD SWAP1 POP PUSH2 0x433 JUMP JUMPDEST PUSH1 0x0 DUP5 DUP5 ADD MSTORE POP POP POP POP JUMP JUMPDEST PUSH1 0x0 PUSH2 0x465 DUP3 PUSH2 0x414 JUMP JUMPDEST PUSH2 0x46F DUP2 DUP6 PUSH2 0x41F JUMP JUMPDEST SWAP4 POP PUSH2 0x47F DUP2 DUP6 PUSH1 0x20 DUP7 ADD PUSH2 0x430 JUMP JUMPDEST PUSH2 0x488 DUP2 PUSH2 0x200 JUMP JUMPDEST DUP5 ADD SWAP2 POP POP SWAP3 SWAP2 POP POP JUMP JUMPDEST PUSH1 0x0 PUSH1 0x20 DUP3 ADD SWAP1 POP DUP2 DUP2 SUB PUSH1 0x0 DUP4 ADD MSTORE PUSH2 0x4AD DUP2 DUP5 PUSH2 0x45A JUMP JUMPDEST SWAP1 POP SWAP3 SWAP2 POP POP JUMP JUMPDEST PUSH32 0x4E487B7100000000000000000000000000000000000000000000000000000000 PUSH1 0x0 MSTORE PUSH1 0x22 PUSH1 0x4 MSTORE PUSH1 0x24 PUSH1 0x0 REVERT JUMPDEST PUSH1 0x0 PUSH1 0x2 DUP3 DIV SWAP1 POP PUSH1 0x1 DUP3 AND DUP1 PUSH2 0x4FC JUMPI PUSH1 0x7F DUP3 AND SWAP2 POP JUMPDEST PUSH1 0x20 DUP3 LT DUP2 SUB PUSH2 0x50F JUMPI PUSH2 0x50E PUSH2 0x4B5 JUMP JUMPDEST JUMPDEST POP SWAP2 SWAP1 POP JUMP JUMPDEST PUSH1 0x0 DUP2 SWAP1 POP DUP2 PUSH1 0x0 MSTORE PUSH1 0x20 PUSH1 0x0 KECCAK256 SWAP1 POP SWAP2 SWAP1 POP JUMP JUMPDEST PUSH1 0x0 PUSH1 0x20 PUSH1 0x1F DUP4 ADD DIV SWAP1 POP SWAP2 SWAP1 POP JUMP JUMPDEST PUSH1 0x0 DUP3 DUP3 SHL SWAP1 POP SWAP3 SWAP2 POP POP JUMP JUMPDEST PUSH1 0x0 PUSH1 0x8 DUP4 MUL PUSH2 0x577 PUSH32 0xFFFFFFFFFFFFFFFFFFFFFFFFFFFFFFFFFFFFFFFFFFFFFFFFFFFFFFFFFFFFFFFF DUP3 PUSH2 0x53A JUMP JUMPDEST PUSH2 0x581 DUP7 DUP4 PUSH2 0x53A JUMP JUMPDEST SWAP6 POP DUP1 NOT DUP5 AND SWAP4 POP DUP1 DUP7 AND DUP5 OR SWAP3 POP POP POP SWAP4 SWAP3 POP POP POP JUMP JUMPDEST PUSH1 0x0 DUP2 SWAP1 POP SWAP2 SWAP1 POP JUMP JUMPDEST PUSH1 0x0 PUSH2 0x5BE PUSH2 0x5B9 PUSH2 0x5B4 DUP5 PUSH2 0x1AE JUMP JUMPDEST PUSH2 0x599 JUMP JUMPDEST PUSH2 0x1AE JUMP JUMPDEST SWAP1 POP SWAP2 SWAP1 POP JUMP JUMPDEST PUSH1 0x0 DUP2 SWAP1 POP SWAP2 SWAP1 POP JUMP JUMPDEST PUSH2 0x5D8 DUP4 PUSH2 0x5A3 JUMP JUMPDEST PUSH2 0x5EC PUSH2 0x5E4 DUP3 PUSH2 0x5C5 JUMP JUMPDEST DUP5 DUP5 SLOAD PUSH2 0x547 JUMP JUMPDEST DUP3 SSTORE POP POP POP POP JUMP JUMPDEST PUSH1 0x0 SWAP1 JUMP JUMPDEST PUSH2 0x601 PUSH2 0x5F4 JUMP JUMPDEST PUSH2 0x60C DUP2 DUP5 DUP5 PUSH2 0x5CF JUMP JUMPDEST POP POP POP JUMP JUMPDEST JUMPDEST DUP2 DUP2 LT ISZERO PUSH2 0x630 JUMPI PUSH2 0x625 PUSH1 0x0 DUP3 PUSH2 0x5F9 JUMP JUMPDEST PUSH1 0x1 DUP2 ADD SWAP1 POP PUSH2 0x612 JUMP JUMPDEST POP POP JUMP JUMPDEST PUSH1 0x1F DUP3 GT ISZERO PUSH2 0x675 JUMPI PUSH2 0x646 DUP2 PUSH2 0x515 JUMP JUMPDEST PUSH2 0x64F DUP5 PUSH2 0x52A JUMP JUMPDEST DUP2 ADD PUSH1 0x20 DUP6 LT ISZERO PUSH2 0x65E JUMPI DUP2 SWAP1 POP JUMPDEST PUSH2 0x672 PUSH2 0x66A DUP6 PUSH2 0x52A JUMP JUMPDEST DUP4 ADD DUP3 PUSH2 0x611 JUMP JUMPDEST POP POP JUMPDEST POP POP POP JUMP JUMPDEST PUSH1 0x0 DUP3 DUP3 SHR SWAP1 POP SWAP3 SWAP2 POP POP JUMP JUMPDEST PUSH1 0x0 PUSH2 0x698 PUSH1 0x0 NOT DUP5 PUSH1 0x8 MUL PUSH2 0x67A JUMP JUMPDEST NOT DUP1 DUP4 AND SWAP2 POP POP SWAP3 SWAP2 POP POP JUMP JUMPDEST PUSH1 0x0 PUSH2 0x6B1 DUP4 DUP4 PUSH2 0x687 JUMP JUMPDEST SWAP2 POP DUP3 PUSH1 0x2 MUL DUP3 OR SWAP1 POP SWAP3 SWAP2 POP POP JUMP JUMPDEST PUSH2 0x6CA DUP3 PUSH2 0x414 JUMP JUMPDEST PUSH8 0xFFFFFFFFFFFFFFFF DUP2 GT ISZERO PUSH2 0x6E3 JUMPI PUSH2 0x6E2 PUSH2 0x211 JUMP JUMPDEST JUMPDEST PUSH2 0x6ED DUP3 SLOAD PUSH2 0x4E4 JUMP JUMPDEST PUSH2 0x6F8 DUP3 DUP3 DUP6 PUSH2 0x634 JUMP JUMPDEST PUSH1 0x0 PUSH1 0x20 SWAP1 POP PUSH1 0x1F DUP4 GT PUSH1 0x1 DUP2 EQ PUSH2 0x72B JUMPI PUSH1 0x0 DUP5 ISZERO PUSH2 0x719 JUMPI DUP3 DUP8 ADD MLOAD SWAP1 POP JUMPDEST PUSH2 0x723 DUP6 DUP3 PUSH2 0x6A5 JUMP JUMPDEST DUP7 SSTORE POP PUSH2 0x78B JUMP JUMPDEST PUSH1 0x1F NOT DUP5 AND PUSH2 0x739 DUP7 PUSH2 0x515 JUMP JUMPDEST PUSH1 0x0 JUMPDEST DUP3 DUP2 LT ISZERO PUSH2 0x761 JUMPI DUP5 DUP10 ADD MLOAD DUP3 SSTORE PUSH1 0x1 DUP3 ADD SWAP2 POP PUSH1 0x20 DUP6 ADD SWAP5 POP PUSH1 0x20 DUP2 ADD SWAP1 POP PUSH2 0x73C JUMP JUMPDEST DUP7 DUP4 LT ISZERO PUSH2 0x77E JUMPI DUP5 DUP10 ADD MLOAD PUSH2 0x77A PUSH1 0x1F DUP10 AND DUP3 PUSH2 0x687 JUMP JUMPDEST DUP4 SSTORE POP JUMPDEST PUSH1 0x1 PUSH1 0x2 DUP9 MUL ADD DUP9 SSTORE POP POP POP JUMPDEST POP POP POP POP POP POP JUMP INVALID LOG2 PUSH5 0x6970667358 0x22 SLT KECCAK256 PUSH1 0x93 PUSH2 0x7E11 0xD6 PUSH5 0x4D44F71544 SLT CALLCODE DUP4 GASLIMIT 0xAF INVALID 0xD9 0x4A CREATE DIV SELFDESTRUCT SWAP10 0xA6 EXTCODECOPY PUSH20 0x4AD215CFD964736F6C6343000812003300000000 "
		},
		"gasEstimates": {
			"creation": {
				"codeDepositCost": "398600",
				"executionCost": "436",
				"totalCost": "399036"
			},
			"external": {
				"marks()": "2407",
				"myName()": "infinite",
				"setMarks(uint256)": "22744",
				"setName(string)": "infinite"
			}
		},
		"methodIdentifiers": {
			"marks()": "3c84c5a5",
			"myName()": "fae2dd4b",
			"setMarks(uint256)": "f2ceb262",
			"setName(string)": "c47f0027"
		}
	},
	"abi": [
		{
			"inputs": [],
			"name": "marks",
			"outputs": [
				{
					"internalType": "uint256",
					"name": "",
					"type": "uint256"
				}
			],
			"stateMutability": "view",
			"type": "function"
		},
		{
			"inputs": [],
			"name": "myName",
			"outputs": [
				{
					"internalType": "string",
					"name": "",
					"type": "string"
				}
			],
			"stateMutability": "view",
			"type": "function"
		},
		{
			"inputs": [
				{
					"internalType": "uint256",
					"name": "mark",
					"type": "uint256"
				}
			],
			"name": "setMarks",
			"outputs": [
				{
					"internalType": "bool",
					"name": "",
					"type": "bool"
				}
			],
			"stateMutability": "nonpayable",
			"type": "function"
		},
		{
			"inputs": [
				{
					"internalType": "string",
					"name": "name",
					"type": "string"
				}
			],
			"name": "setName",
			"outputs": [
				{
					"internalType": "bool",
					"name": "",
					"type": "bool"
				}
			],
			"stateMutability": "nonpayable",
			"type": "function"
		}
	]
}